:020000040800F2
:10000000D827002001010008712B00087921000881
:100010003D290008E10E0008CB3F00080000000069
:100020000000000000000000000000004134000853
:100030003917000800000000232F000819370008B6
:100040001B0100081B0100081B0100081B01000820
:100050001B0100081B0100081B0100081B01000810
:100060001B0100081B0100081B0100081B01000800
:100070001B0100081B0100081B0100081B010008F0
:100080001B0100081B0100081B0100081B010008E0
:100090001B0100081B0100081B0100081B010008D0
:1000A0001B0100081B0100081B0100081B010008C0
:1000B0001B010008BD370008293800081B01000893
:1000C0001B0100081B0100081B0100081B010008A0
:1000D0001B010008393F00081B0100081B01000834
:1000E0001B0100081B0100081B010008DFF80CD0F1
:1000F00000F0BCFC0048004749680008D8270020F1
:100100000648804706480047FEE7FEE7FEE7FEE7B1
:10011000FEE7FEE7FEE7FEE7FEE7FEE75D370008E5
:10012000ED0000082DE9F0410024061B254671F181
:10013000000605DA01240027D0EB070067EB010178
:10014000161E73F1000605DA0027D2EB070201251F
:1001500067EB030300F07CFB86460E4617469C4681
:10016000AC4204D00025D0EB050E65EB010624B1AE
:100170000020D2EB000760EB030C704631463A4694
:100180006346BDE8F08100000649074A086850430D
:1001900043F2390210440860400870470149086082
:1001A00070470000B41A00206D4EC641D2B201E083
:1001B00000F8012B491EFBD270470022F6E710B56C
:1001C00013460A4604461946FFF7F0FF204610BDC5
:1001D000421C10F8011B0029FBD1801A704730B572
:1001E00004460020034600E05B1C934203D2E05C1F
:1001F000CD5C401BF8D030BD034611F8012B00F850
:10020000012B002AF9D118467047F0B480EA0102A8
:10021000D40F4200B2EB410F02D20246084611460B
:100220004A0042D0C30DDDB2C1F3C752AD1A202D32
:1002300035DAC1F3160141F4000204B15242C5F1AE
:10024000200602FA06F12A411044B3EBD05F23D016
:10025000C4B1012DA0EBC35009DCF0BC4FF000424B
:1002600002EAC352DBB200F5000000F05CBB4000C4
:1002700000F1807000EBC350A0F1807040EAD170B3
:10028000490009E0490841EAC071A0EBC35000F5FC
:100290000000400800EBC350F0BC00F03BBB6142E3
:1002A000012202EB4101001BF6E7F0BC704781F030
:1002B0000041AAE780F00040A7E780EA010210B5FC
:1002C00002F00043400022D04A001FD0010E01EB93
:1002D0001261C0F35600C2F3560240F4000042F42B
:1002E0000002A0FB022000047F39140400D0401C4F
:1002F00050EA124001D44000491EC2B20C0604EB81
:10030000D010401C4008802A02D003E0002010BD1D
:1003100020F00100002900DA0020184310BD30B49D
:1003200080EA010202F0004530F0004221F0004076
:1003300013D090B1C30DD40DC2F31601C0F3160053
:10034000E41A41F4000140F400027D34914201D3EB
:10035000641C00E04900002C02DA30BC0020704729
:100360004FF400000023914201D3891A034340084F
:100370004FEA4101F7D151B1914202D14FF0004112
:1003800005E002D24FF0010101E06FF0010103EB43
:10039000C450284430BC00F0BDBA2DE9FE4F804661
:1003A00081EA0300C00F0C46009021F0004123F0C9
:1003B0000045B8EB0200A94105D2404621469046CF
:1003C0001C460B46024623F00040104347D0270D41
:1003D000C7F30A00C3F30A510290401A0190402863
:1003E0006BDAC3F3130040F4801B0098924620B1EF
:1003F0000023D2EB030A63EB0B0B01985946C0F1C3
:100400004002504600F055FA06460D465046594601
:10041000019A00F06DFA10EB08006141002487EAB0
:10042000115284EAE7731A4340D0009A62B3019AEA
:10043000012A4FEA075215DC001B61EB02014FF065
:10044000004202EA0752CDE90042001C41F580114A
:1004500032462B4600F0A4FA03B0BDE8F08F4046C8
:100460002146F9E7001B61EB0201001C41F58013F6
:1004700000185B412018A2F5001747EB030140EA82
:10048000D570B6196D4111E06D084FEA360645EAA0
:10049000C0754FEA0752001B61EB0201001C41F5D9
:1004A000801149084FEA30000019514132462B466D
:1004B00003B0BDE8F04F00F064BA0098012240009C
:1004C0000023D0EB020263EBE073009821464FEA71
:1004D000E074B8EB000061EB0401E9E783F000434E
:1004E0005BE781F0004158E72DE9FE4F81EA030404
:1004F00004F0004421F0004100944FF0000B23F081
:10050000004350EA01045ED052EA03045BD0C3F317
:100510000A54C1F30A552C44A4F2F3340194A0FB0D
:100520000254C1F3130141F48011C3F3130343F4E4
:10053000801301FB024400FB034E840A970A44EA3D
:10054000815447EA8357A4FB076802958D0A05FB8F
:1005500007854FEA932C04FB0C542705029D4FEAB4
:10056000065847EA1637B5EB08056EEB070C870E01
:10057000920E47EA811742EA8312A7FB0201B6EB0B
:100580000B0164EB00042B0D43EA0C335E1844EBC3
:100590001C50DA465146E7FB0201C5F313044FEA4B
:1005A0000B3343EA14534FEA0432019C43EA060337
:1005B000A4F10C040294009CCDE900B400F0F0F921
:1005C00003B0BDE8F08F00200146F9E72DE9F04DBA
:1005D00081EA030404F0004B21F0004514464FF07B
:1005E000000A23F0004150EA050220D054EA01023B
:1005F0001DD0C5F30A570246C5F31303C1F3130018
:10060000C1F30A5640F4801543F48013A7EB0608A3
:10061000101BD64608F2FD3873EB050002D308F133
:10062000010801E092185B41B8F1000F03DA0020E5
:100630000146BDE8F08D00204FF480110646844647
:100640000EE0171B73EB050705D3121B63EB0503C5
:1006500006434CEA010C49084FEA300092185B410E
:1006600050EA0107EDD152EA030012D082EA0400F9
:1006700083EA0501084305D0101BAB4106D20122D5
:10068000002306E000224FF0004302E06FF0010279
:1006900053101AEB06004CEB085110EB0A0041EB2B
:1006A0000B01BDE8F04D00F06CB9C10F80EAE070BD
:1006B0000844CA079623002100F035B9962300228A
:1006C000114600F030B90EB540F2334102910021DD
:1006D000CDE900110A460B4600F062F903B000BDF7
:1006E00000F0004220F00040C10DC0F3160040F4BD
:1006F00000007F2901DA00207047962903DCC1F150
:100700009601C84001E096398840002AF4D0404262
:10071000704720F00040C10DC0F3160040F4000007
:100720007F2901DA00207047962903DCC1F1960188
:10073000C8407047963988407047C1F30A5210B5D7
:10074000C1F3130140F2FF3341F480119A4201DA00
:10075000002010BD40F233439A42A2F2334203DC40
:10076000524200F0B5F810BD904010BD00F00042BC
:1007700030F000400AD0C10D01F56071C0F31600E1
:1007800042EA0151C2084007114370470020014668
:100790007047000030B5041E71F1000404DB4FF017
:1007A0000044404264EB0101141E73F1000405DBB8
:1007B0001C464FF00043524263EB0403994208BFCA
:1007C000904230BD01F0004330B421F0004150EAC6
:1007D000010206D00A0DA2F56072C1F31301002ACE
:1007E00002DC30BC00207047440F44EAC104C10061
:1007F000E01830BC00EBC25000F08CB8002801DBE0
:10080000C0F10040002901DBC1F100418142704785
:10081000002801DBC0F10040002901DBC1F10041EB
:100820008842704730B50B46014600202022012443
:1008300009E021FA02F59D4205D303FA02F5491BAE
:1008400004FA02F52844151EA2F10102F1DC30BDC4
:100850002DE9F05F0546002092469B4688460646F5
:10086000814640241BE0284641464746224600F088
:100870002FF853465A46C01A914110D311461846D4
:10088000224600F016F82D1A67EB01084F46224663
:100890000120002100F00DF817EB00094E41201E49
:1008A000A4F10104DFDC484631462A464346BDE850
:1008B000F09F202A04DB203A00FA02F10020704762
:1008C0009140C2F1200320FA03F31943904070478E
:1008D000202A04DB203A21FA02F00021704721FA95
:1008E00002F3D040C2F120029140084319467047FC
:1008F000202A06DBCB17203A41FA02F043EAE073E4
:1009000006E041FA02F3D040C2F1200291400843D0
:10091000194670470029A8BF7047401C490008BF0E
:1009200020F00100704710B4B0FA80FC00FA0CF01F
:1009300050EA010404BF10BC704749B1CCF1200457
:1009400021FA04F411FA0CF118BF012121430843E4
:10095000A3EB0C01CB1D4FEA00614FEA102042BF10
:10096000002010BC704700EBC35010440029A4BF06
:1009700010BC7047401C490008BF20F0010010BCAB
:10098000704710B5141E73F1000408DA401C41F1E1
:10099000000192185B411A4301D120F0010010BD03
:1009A0002DE9F04D92469B4611B1B1FA81F202E079
:1009B000B0FA80F220329046FFF77BFF04460F46E4
:1009C00040EA0A0041EA0B0153465A46084313D055
:1009D000114653EA010019D0C8F140025046FFF712
:1009E00077FF05460E46504659464246FFF761FFDF
:1009F000084305D0012004E020463946BDE8F08DCB
:100A00000020054346EAE0762C4337430A98630505
:100A1000E40AA0EB08000022FD0A44EA47540A3029
:100A200002D500200146E9E7010510196941DDE919
:100A3000084500196941BDE8F04DA2E770B521F005
:100A4000004303430CD0C1F30A550024D5EB040541
:100A500064EB0403D617AD1AB34102DB0020014654
:100A600070BD201841EB025170BD0000064C074DCF
:100A700006E0E06840F0010394E80700984710346E
:100A8000AC42F6D3FFF736FB80920008A092000834
:100A90002DE9F04D00231A461B1A8A4103DB002082
:100AA0000146BDE8F08DC1F30A52C1F3130141F4D0
:100AB00080154FF0000BD10702D100186D41521E76
:100AC0000027044640F2FF11384601EB620A3E4619
:100AD0008046024600204FF48011FFF7F9FEC2194C
:100AE0007141BB1846EB0100B4EB030C75EB000C35
:100AF00004D3E41A65EB000517460E46241908F1E5
:100B000001006D4180463428E3DDF91946EB06000B
:100B1000091BA84103D24FF0FF32134601E0002227
:100B200013461BEB070046EB0A51BDE8F04DFFF7FB
:100B300028BF70B58C1810F8015B15F0070301D1C0
:100B400010F8013B2A1106D110F8012B03E010F830
:100B5000016B01F8016B5B1EF9D12B0705D4002353
:100B6000521E0DD401F8013BFAE710F8013BCB1AF5
:100B7000921C03E013F8015B01F8015B521EF9D5EA
:100B8000A142D8D3002070BD21B1826842F0010299
:100B9000826003E0826822F001028260704721B126
:100BA000826842F48072826003E0826822F480727C
:100BB00082607047014600208A6802F004020AB190
:100BC000012000E000207047014600208A6802F002
:100BD00008020AB1012000E00020704730B502464B
:100BE0000020002350680F4C20400D790C6844EA27
:100BF00005242043506090680B4C2040D1E90254FA
:100C00002C434D7944EA450420439060D06A20F497
:100C100070000C7C641EE4B2234340EA0350D062AF
:100C200030BD0000FFFEF0FFFDF7F1FF00B591B011
:100C30000121480202F0A2F90121084602F07EF9E2
:100C4000334800F0DBFB334801903348029000202A
:100C500003900590802006900120049000200B90C6
:100C60004FF48060089080100790202009900002C7
:100C70000A9000200C9001208DF834008DF835008A
:100C80004FF460200E9000200F9001208DF840005E
:100C90000CA920484C38FFF7A1FF4FF4404002F068
:100CA00041F90523012202211A484C3800F036F898
:100CB00001A9174800F048FC0121154800F092FBFB
:100CC000012114484C38FFF76AFF012111484C38C4
:100CD000FFF75AFF0F484C3800F07CF800BF0D4872
:100CE0004C38FFF771FF0028F9D10A484C3800F062
:100CF00081F800BF07484C38FFF75CFF0028F9D1A6
:100D0000012104484C3800F06AF811B000BD000021
:100D1000080002404C240140D8150020F0B50446DC
:100D20000D4600200021092D11DDE068A5F10A061D
:100D300006EB4607072606FA07F18843A5F10A06DF
:100D400006EB460603FA06F10843E0600CE0206972
:100D500005EB4507072606FA07F1884305EB45062C
:100D600003FA06F108432061072A0FDA606B561E6A
:100D700006EB86071F2606FA07F18843561E06EB88
:100D8000860605FA06F10843606322E00D2A0FDAB1
:100D9000206BD61F06EB86071F2606FA07F188434D
:100DA000D61F06EB860605FA06F10843206310E01D
:100DB000E06AA2F10D0606EB86071F2606FA07F188
:100DC0008843A2F10D0606EB860605FA06F10843F4
:100DD000E062F0BD816841F008018160704721B197
:100DE000826842F4A002826003E0826822F4A002DA
:100DF00082607047816841F00401816070470000A3
:100E00000A490978491CC9B2084A1170084601EB21
:100E1000D0714910A0EB410119B1012004490870BB
:100E200002E0002002490870704700000F16002001
:100E3000AC00002010B505498978491EC8B2044BA2
:100E4000044A05A102F022FC10BD0000541F00203E
:100E5000951B0008250D00204578697400000000EE
:100E600010B504460021204603F0D4FC10BD10B597
:100E700004460121204603F0CDFC10BD08B51648FC
:100E800000F072FC0121042002F078F804208DF8B3
:100E90000300ADF800006946104801F047F8102043
:100EA0008DF803000120ADF8000003208DF802004A
:100EB00069460A4801F03AF803E00121074801F0C9
:100EC000CBF80121054801F0BCF80028F5D0024814
:100ED00000F04AFC08BD0000404B4C0000080140F7
:100EE00000BFFEE708B50121082002F047F81020F6
:100EF0008DF8030003208DF802001020ADF80000EB
:100F00006946174801F012F82020ADF80000694644
:100F1000134801F00BF84020ADF800006946104876
:100F200001F004F810210E4801F096F820210C4839
:100F300001F092F840210A4801F08EF809480A4968
:100F400008610A490848416209498163002006494D
:100F5000087001200875022081F8280008BD0000F3
:100F6000000C0140408C0008CC1A0020508C000876
:100F7000608C000810B505F031FD04460448006897
:100F8000201A0A2803D30248046006F081FD10BD30
:100F9000A80000202DE9F04706460D461746984662
:100FA0001DB900F05FF8BDE8F0872A48066005F03B
:100FB00015FD294908602948C0F80080012D09D194
:100FC00041F28931264802F02AFD0021244802F02E
:100FD00099FCE8E74CF2503090FBF5F084B237B161
:100FE000012F0AD0022F12D0032F23D119E041F292
:100FF00088311B4802F013FD1CE0A146E01704EB0A
:101000005070C0F3CF01164802F009FD12E0A1466E
:10101000E01704EB9070C0F38F01114802F0FFFC61
:1010200008E0A14604EBD970C0F34F010C4802F070
:10103000F6FC00BF00BF2146094802F0EEFC00218B
:10104000074802F0EEFC0121054802F05BFC00BFFE
:10105000A9E70000880000208C00002090000020FC
:10106000002C014010B500200C49086041F2893184
:101070000B4802F0D4FC41F28831094802F0CDFC63
:101080000021074802F0CDFC0021054802F03AFC9F
:101090004FF48071034800F0DDFF10BD8800002090
:1010A000002C01400008014000B589B00121042056
:1010B00001F064FF0121C80201F060FF18208DF8E3
:1010C000230003208DF822004FF48070ADF820003B
:1010D00008A9204800F02AFF0020ADF81A00ADF85A
:1010E000160040F29F50ADF8140040F2E730ADF822
:1010F000180000208DF81C0005A9174802F094FC88
:101100007020ADF804000120ADF806000020ADF815
:1011100008004FF4FA70ADF80A000020ADF80C009A
:101120004FF48070ADF8100001A90B4802F020FCCC
:101130000121094802F0F2FB0821074802F064FC93
:101140000121054802F0CCFB0021034802F0DAFB44
:1011500009B000BD00080140002C014070B50D48E9
:1011600001780078401C0B4A10700B48006850F85A
:101170002150ACB22E0C0948008882B2AFF2230392
:1011800031462046FFF706FF14B9002004490860E5
:1011900070BD000094000020980000209C000020FA
:1011A000A000002010B505F019FC0C4908600C489F
:1011B000006888B10A4800680A49096801EB4000E4
:1011C00006490968884207D2FFF74CFF06480068C5
:1011D00010B105480068804710BD0000A400002041
:1011E000880000208C000020900000200748007834
:1011F000012803D100200549087005E00348007864
:1012000010B901200149087070470000801A0020C1
:1012100070B505460E4625B913480078802800D1E0
:1012200070BD76B1002404E0204600F01FF8601C79
:10123000C4B2AC42F8DB0C480178204602F026F834
:101240000FE03F2404E0204600F010F8601EC4B216
:10125000C5F13F00A042F6DB03480178204602F0CA
:1012600015F800BFDCE70000B815002030B50246D5
:10127000C51700EB5575C5F3C703C51700EB5575CA
:10128000ED10A0EBC505ECB200210CE0074A02EB23
:10129000C312525C0125A540AA43044D05EBC315BA
:1012A0006A544A1CD1B27F29F0DB30BD081B0020F4
:1012B00010B50121024800F0CDFE002010BD000055
:1012C000000801407CB504460D460020082101239A
:1012D000034ACDE900102946204600F0B3FB7CBD4F
:1012E0005F1A002070B504460D462946204600F0DE
:1012F00011F804F10801C8B2294600F00BF829469C
:101300002046FFF7DFFF05F14800C1B22046FFF796
:10131000D9FF70BD7CB504460D460020012148234D
:10132000034ACDE900102946204600F08BFB7CBD26
:10133000781F002070B52948047800250FE0274861
:10134000007828440A2190FBF1F201FB1200C4B29C
:10135000234810F8340000B903E0681CC5B20A2D18
:10136000EDDB00BF1D480078844219D101201C49E3
:101370001A4A127801F832008020184A127801EBDC
:10138000C2014860FEF700FF1F2190FBF1F201FB54
:1013900012001349114A127801EBC20188701CE057
:1013A0000F480E49097800EBC10040681E2814DA86
:1013B00001200B4901F83400802001EBC401486092
:1013C000FEF7E2FE1F2190FBF1F201FB120004493F
:1013D00001EBC40188700148047070BD9F1A0020A1
:1013E0008423002021B1026842F00102026004E07F
:1013F00002684FF6FE731A400260704701684FF6AC
:10140000FE72114001600021016041608160C16095
:101410004B49884208D14A490839496841F00F01CF
:10142000474A083A51608AE045491431884208D158
:1014300043490839496841F0F001414A083A51608E
:101440007DE03F492831884208D13D490839496843
:1014500041F470613A4A083A516070E038493C31D1
:10146000884208D136490839496841F47041344A04
:10147000083A516063E032495031884208D130491E
:101480000839496841F470212D4A083A516056E004
:101490002B496431884208D129490839496841F407
:1014A0007001274A083A516049E02549783188425D
:1014B00008D123490839496841F07061204A083A47
:1014C00051603CE01F49884206D1011F096841F084
:1014D0000F01021F116032E01A491431884208D10D
:1014E0001849091F096841F0F001164A121F1160DE
:1014F00025E014492831884208D11249091F09689A
:1015000041F470610F4A121F116018E00D493C311F
:10151000884208D10B49091F096841F47041094A02
:10152000121F11600BE007495031884207D105496D
:10153000091F096841F47021024A121F11607047A7
:10154000080002400804024010B50022026847F675
:10155000F0739A430C6A8B6823430C6923434C69EC
:1015600023438C692343CC6923434C6A23438C6A0D
:1015700023431A430260CB6843600B6883604B6867
:10158000C36010BD10B50748007A012802D101F0F0
:10159000F1F904E00348007A08B901F051FA01209A
:1015A00010BD0000541F002008B50121042001F0E7
:1015B000E5FC14208DF80300C020ADF800000320E6
:1015C0008DF802006946034800F0B0FC00F032F8E4
:1015D00008BD00000008014010B5FFF7E5FF1F211E
:1015E0000E2000F039F800F0C8F800210F2000F0BC
:1015F00033F800F0C2F820210E2000F02DF810BDC5
:1016000010B580210A4800F027FD4021084800F06D
:1016100023FD00F0B2F88021054800F01BFD00F02A
:10162000ACF84021024800F015FD00F0A6F810BD0E
:101630000008014010B58021064800F00BFD402154
:10164000044800F009FD00F098F88021014800F0FE
:1016500003FD10BD0008014070B505460C46FFF7BC
:10166000CFFFD02001F056FF00F00EF8284601F021
:1016700051FF00F009F8204601F04CFF00F004F89B
:10168000FFF7D8FF70BD000010B580210D4800F0B5
:10169000E3FC00F072F840210A4800F0DDFC00F0A5
:1016A0006CF88021074800F0CCFC08B1012400E070
:1016B00000244021034800F0CDFC00F05EF82046F5
:1016C00010BD00000008014030B50246C51700EB10
:1016D0005575C5F3C703C51700EB5575ED10A0EBA5
:1016E000C505ECB2054A02EBC312525C0125A540C8
:1016F000AA43024D05EBC3156A5430BD081B0020F8
:1017000030B50246C51700EB5575C5F3C703C517BD
:1017100000EB5575ED10A0EBC505ECB2054A02EBE8
:10172000C312525C0125A540AA43024D05EBC31527
:101730006A5430BD821F0020704701B502E0009856
:10174000401E009000980028F9D108BD002001E05B
:10175000411CC8B20A28FBDB7047002001E0411C95
:10176000C8B20A28FBDB704701B502E00098401EB2
:10177000009000980028F9D108BD002001E0411C2C
:10178000C8B20A28FBDB704710B50446034801784D
:101790002246032004F0B2FE10BD0000541F0020BA
:1017A0007CB504460D46002020210123034ACDE9E3
:1017B00000102946204600F045F97CBD3016002077
:1017C0007CB504460D46002008210123034ACDE9DB
:1017D00000102946204600F035F97CBD5E1A002035
:1017E0001CB5002040218023034ACDE900100146AA
:1017F00000F028F91CBD00004016002070B504461A
:101800000D462946204600F0FDF804F12001C8B23B
:10181000294600F0F7F829462046FFF7C1FF05F1F9
:101820007F00C1B22046FFF7BBFF70BD70B5044614
:101830000D462946204600F0F5F804F10801C8B22B
:10184000294600F0EFF829462046FFF7B9FF05F1D9
:101850004800C1B22046FFF7B3FF70BD10B586B097
:101860006048007800905F48437882785EA102A8C3
:1018700002F014FD002302AA2021184601F0D5FA37
:101880005C48006841F27071B0FBF1F03C21B0FBA4
:10189000F1F201FB12000A21B0FBF1F0564901EB15
:1018A00080140020202110232246CDE9001001469B
:1018B000184600F0C7F84F48006841F27071B0FB5D
:1018C000F1F03C21B0FBF1F201FB12000A21B0FB68
:1018D000F1F201FB1200484901EB801400202021A5
:1018E00010232246CDE900101946184600F0AAF848
:1018F000002020211023414ACDE90010184600F0B5
:10190000A1F83C4800686421B0FBF1F03C21B0FB39
:10191000F1F201FB12000A21B0FBF1F0364901EBB4
:1019200080140020202110232246CDE90010302110
:10193000184600F087F82F4800686421B0FBF1F0EA
:101940003C21B0FBF1F201FB12000A21B0FBF1F2E5
:1019500001FB1200284901EB8014002020211023F4
:101960002246CDE900104021184600F06BF82148CE
:1019700000686421B0FBF1F201FB12000A21B0FB08
:10198000F1F000EB40001E4901EB0014002018218B
:1019900010232246CDE900105021182000F052F803
:1019A000144800686421B0FBF1F201FB12000A2127
:1019B000B0FBF1F201FB120000EB4000104901EB1B
:1019C00000140020182110232246CDE900106021C8
:1019D000182000F037F800211020FFF70FFF06B0A5
:1019E00010BD0000C41500202532643A2532643A47
:1019F000253264001C160020A50300205714002087
:101A0000A50700207CB504460D4600200121802357
:101A1000034ACDE900102946204600F013F87CBDAA
:101A2000201600207CB504460D46002001214823E5
:101A3000034ACDE900102946204600F003F87CBD9A
:101A4000541A00202DE9FF4F82B00C4615464FF086
:101A50000009CDF80490DDF83C9003FB09F1DFF8B4
:101A60002C9199F801E0DDF80890F14409F0FF0CA1
:101A7000DDF84090ACEB090909F0FF002246A246D0
:101A800089464FEAE17E01EB5E7ECEF3C70ECDF8CC
:101A900000E04FEAE17E01EB5E7E4FEAEE0EA1EB45
:101AA000CE0EBEF1000F07D0DDF8009009F101095C
:101AB00009F0FF09CDF8009000265FE0002755E00F
:101AC0007F2A38DC002A36DB3F2834DC604532DBF5
:101AD000DDF83C90E14481452DDD81464FEAE07E12
:101AE00000EB5E7ECEF3C7084FEAE07E00EB5E7E41
:101AF0004FEAEE0EA0EBCE0E0EF0FF0B95F8009025
:101B00004FF0010E0EFA07FE09EA0E09B9F1000FB7
:101B100011D0DFF87C9009EBC81919F802904FF04A
:101B2000010E0EFA0BFE49EA0E09DFF864E00EEB37
:101B3000C81E0EF80290521C0AEB0309A9F1010914
:101B4000914504DA00F1010909F0FF005246DDF881
:101B5000049009F101091FFA89F9CDF8049089452B
:101B600000D105E007F1010909F0FF07082FA7DB05
:101B700000BF6D1C06F1010909F0FF06DDF80090B9
:101B80004E459BDB06B0BDE8F08F0000481F0020EB
:101B9000081B002010B50648006A20B10449086AF5
:101BA000FFF765F902E00249086A804710BD0000AE
:101BB000541F002010B500200549087005484068F2
:101BC00005490862002003490870FFF7E3FF10BDD4
:101BD000B415002010160020541F002010B500205E
:101BE0000549087005484068054908620020034916
:101BF0000870FFF7CFFF10BDB41500203816002085
:101C0000541F002010B500200549087005484068A1
:101C100005490862002003490870FFF7BBFF10BDAB
:101C2000B4150020401A0020541F002010B50020D9
:101C300005490870054840680549086200200349C5
:101C40000870FFF7A7FF10BDB4150020641A00202C
:101C5000541F002010B501200749087000200749D3
:101C60000870074840680749086200200449087066
:101C7000FFF790FF10BD0000801A0020B41500206F
:101C8000781A0020541F002010B500200549087064
:101C90000548406805490862002003490870FFF7BD
:101CA00079FF10BDB4150020881A0020541F0020B1
:101CB00070B50646002415E004F1B001C8B200F08A
:101CC000C5FF002000F0C2FF102000F0BFFF00257C
:101CD00004E0304600F0D0FF681CC5B2802DF8DB70
:101CE000601CC4B2082CE7DB70BD000014484078CB
:101CF00020B1012810D002281ED111E01048C07870
:101D0000401EC0B20E49C8700E490978884202D1FF
:101D100001200B49487010E00220094948700CE08E
:101D20000748C078401CC0B20549C8703F2802D19E
:101D300002200549087000E000BF00BF70470000A6
:101D4000901A0020991A0020981A00207CB5184D8E
:101D50001848047915E01749C978891DC8B2214689
:101D600000F0D6F938B91349C9781231C8B2214602
:101D700000F0CEF918B102200F49087006E0601C8F
:101D8000C4B20C4840681830A042E4DC00BF002018
:101D90001821084BCDE900105B7803EBC30305EB7A
:101DA000C302044B5968D8781823FFF74BFE7CBD5B
:101DB000D7140020901A0020981A002010B504F0C3
:101DC0000DFE044620480068201A14283BD31E4804
:101DD00004601E480078401CC0B21C4908703221C3
:101DE00090FBF1F201FB120068B90020174908705E
:101DF00017480068401C16490860084615A102688B
:101E0000154802F04BFA0023134A1946184601F010
:101E10000CF81248007820B101280BD0022810D10C
:101E200009E0FFF787FAFFF761FF02F03DF9FFF7DE
:101E30008DFF07E006E000F013F800200749087066
:101E400000E000BF00BF10BDAC1A0020B01A002097
:101E5000A01A0020256400009A1A0020981A002079
:101E600010B501200D49087048701420C8704860F2
:101E700000200B4908700B49086008460AA1026857
:101E80000A4802F00BFA002405E00020084901F896
:101E90003400601CC4B20A2CF7DB10BD901A00207D
:101EA0009F1A0020A01A0020256400009A1A002022
:101EB0008423002010B5FFF7D3FF084801F0CEFBC4
:101EC000074A0849084801F0C1FBAFF2170107486B
:101ED00001F0F6FB0020FEF7C3FF10BDBD1D00089A
:101EE000A92F0008891C0008113F0008881A00204B
:101EF00010B5084801F0B2FB074A0849084801F04C
:101F0000A5FBAFF21301074801F0DAFB0648FEF724
:101F1000A7FF10BD9D2400089D2F0008551C000838
:101F2000ED110008781A0020FD2400082DE9F04189
:101F3000024600250026002000230024002791F8F7
:101F400003C00CF00F0591F803C00CF0100CBCF1AD
:101F5000000F03D091F802C04CEA050591F800C0CB
:101F6000BCF1000F31D0146800202BE04FF0010CC1
:101F70000CFA00F3B1F800C00CEA03069E4220D12F
:101F800083004FF00F0C0CFA03F7BC4305FA03FC77
:101F90004CEA040491F803C0BCF1280F06D14FF0BD
:101FA000010C0CFA00FCC2F814C00AE091F803C05E
:101FB000BCF1480F05D14FF0010C0CFA00FCC2F83F
:101FC00010C0401C0828D1D31460B1F800C0BCF187
:101FD000FF0F34DD546800202EE000F1080C4FF0B4
:101FE000010808FA0CF3B1F800C00CEA03069E429F
:101FF00021D183004FF00F0C0CFA03F7BC4305FA14
:1020000003FC4CEA040491F803C0BCF1280F05D18D
:1020100000F1080C08FA0CF8C2F8148091F803C01B
:10202000BCF1480F07D100F1080C4FF0010808FA85
:102030000CF8C2F81080401C0828CED35460BDE8CC
:10204000F0810246002093680B400BB1012000E0B4
:1020500000207047416170470161704710B5044628
:1020600003F0CAFE18B905480078207004E003495F
:10207000606808620020207010BD0000541F00201E
:1020800070B502461046D61702EB5676C6F3C70364
:10209000D61702EB5676F610A2EBC606F4B2002570
:1020A000402A01DA802901DB002070BD054800EBE1
:1020B000C310405C0126A640304000B101252846EF
:1020C000F3E70000821F002070B502461046D617C5
:1020D00002EB5676C6F3C703D61702EB5676F61018
:1020E000A2EBC606F4B20025402A01DA802901DB02
:1020F000002070BD054800EBC310405C0126A640DF
:10210000304000B101252846F3E70000081B0020FD
:1021100070B502461046D61702EB5676C6F3C703D3
:10212000D61702EB5676F610A2EBC606F4B20025DF
:10213000402A01DA802901DB284670BD054800EB02
:10214000C310405C0126A640304000B1012528465E
:10215000F3E70000081B002030B501460A2491FB7C
:10216000F4F4E2B20A2491FBF4F504FB1514E3B293
:1021700003EB0214E0B230BD00BFFEE710B54FF430
:1021800080710C48FFF768FF4FF400710948FFF7B2
:1021900063FFFFF7E2FA4FF480710648FFF75AFF3A
:1021A000FFF7DBFA4FF400710248FFF753FFFFF728
:1021B000D4FA10BD000C014010B54FF480710848EE
:1021C000FFF748FF4FF400710548FFF745FFFFF7A1
:1021D000C4FA4FF480710248FFF73EFF10BD0000C3
:1021E000000C014010B54FF480710F48FFF734FF29
:1021F000FFF7B3FA4FF400710B48FFF72DFFFFF71D
:10220000ACFA4FF480710848FFF71BFF08B10124B6
:1022100000E000244FF400710348FFF71BFFFFF7B5
:102220009CFA204610BD0000000C014008B50121B9
:10223000082000F0A3FE10208DF803004FF440703A
:10224000ADF8000003208DF8020069460248FFF750
:102250006DFEFFF7B1FF08BD000C014010B50A4943
:102260000978491CC9B2084A1170084601EBD071BF
:102270004910A0EB410119B1A12000F0E7FC02E0F8
:10228000A02000F0E3FC10BD0D16002010B50F4893
:1022900001F0E4F90E4A0F490F4801F0D7F90FA2F7
:1022A00001211348007801F0E9F9124B124A134951
:1022B000134801F0D9F9AFF22B01124801F000FAEE
:1022C00002F00CFE0020FEF7CBFD10BD85150008C6
:1022D0001169000825690008656900083C2053451C
:1022E0005454494E47204D454E55203E00000000B5
:1022F000E8150020D9650008F17900088D6900080B
:10230000197A0008EC15002010B50F4801F0A6F965
:102310000E4A0F490F4801F099F90FA20021134806
:10232000007801F0ABF9124B124A1349134801F03F
:102330009BF9AFF22B01124801F0C2F902F0CEFD79
:102340000020FEF78DFD10BD8515000811690008FD
:1023500025690008656900083C2053455454494EDE
:1023600047204D454E55203E00000000F41500204A
:1023700055660008F1790008A1690008197A00087B
:10238000F815002010B50F4801F068F90E4A0F4902
:102390000F4801F05BF90FA201211348007801F00A
:1023A0006DF9124B124A1349134801F05DF9AFF26F
:1023B0002B01124801F084F902F090FD0020FEF795
:1023C0004FFD10BD8515000811690008256900083A
:1023D000656900083C2053455454494E47204D45FB
:1023E0004E55203E00000000001600203167000816
:1023F000F1790008B5690008197A00080416002070
:1024000010B5084801F02AF9074A0849084801F0C0
:102410001DF9AFF21301074801F052F90020FEF751
:102420001FFD10BD5D180008DD360008B51B000853
:10243000153300081016002010B5084801F00EF9F9
:10244000074A0849002001F001F9AFF213010648DC
:1024500001F036F90248FEF703FD10BDE117000850
:10246000612B0008DD1B00083816002010B5084855
:1024700001F0F4F800220749104601F0E7F8AFF246
:102480001301054801F01CF90020FEF7E9FC10BD1E
:10249000E96400082D1C0008641A002010B504F03F
:1024A0009DFA044613480068201AC82821D3114811
:1024B00004601148007830B1012811D0022807D0FB
:1024C000032814D10DE000F071F800F037F80FE0A8
:1024D00000F06CF800F032F801200749087007E0BE
:1024E00006E000F00BF801200349087000E000BF8F
:1024F00000BF10BD841A0020801A002070B5012092
:102500000C490870002412E000250CE0FDF73CFEA9
:10251000FF2190FBF1F201FB1200074901EBC4110E
:102520004855681CC5B2802DF0DB601CC4B2082C75
:10253000EADB70BDB4150020081B002070B5002434
:1025400015E000250FE029462046FFF799FD20B150
:102550002946204600F00EF803E029462046FFF702
:10256000B3F8681CC5B2802DEDDB601CC4B2402CF2
:10257000E7DB70BD30B50246C51700EB5575C5F3F6
:10258000C703C51700EB5575ED10A0EBC505ECB200
:10259000054A02EBC312525C0125A5402A43024DB5
:1025A00005EBC3156A5430BD081B002070B500242C
:1025B0000BE0002505E02946204600F052FC681C8F
:1025C000C5B2802DF7DB601CC4B2402CF1DB70BDBE
:1025D00030B50246C51700EB5575C5F3C703C517DF
:1025E00000EB5575ED10A0EBC505ECB2054A02EB0A
:1025F000C312525C0125A5402A43024D05EBC315C9
:102600006A5430BD821F002008B5002000906B4640
:1026100001227521692000F0EBFC9DF8000068287C
:1026200002D00120009001E0002000909DF8000001
:1026300008BD000008B50121082000F09FFC102013
:102640008DF803000620ADF8000002208DF802008E
:1026500069460748FFF76AFC04210548FFF7FCFCC0
:1026600002210348FFF7F8FCFFF770F808BD0000EF
:10267000000C014010B5044624B102210B48FFF7BD
:10268000E9FC03E002210948FFF7E6FCFFF75EF8EA
:1026900004210648FFF7E0FCFFF758F8042103483F
:1026A000FFF7D8FCFFF752F810BD0000000C014006
:1026B00010B502211348FFF7CFFCFFF747F80421BC
:1026C0001048FFF7C9FCFFF741F802210D48FFF75A
:1026D000B8FC08B9012010BD02210A48FFF7BAFC76
:1026E000FFF734F804210748FFF7B4FCFFF72EF892
:1026F00002210448FFF7A5FC08B10220EBE7002007
:10270000E9E70000000C014010B502210848FFF77E
:10271000A1FCFFF71BF804210548FFF79DFCFFF71C
:1027200015F802210248FFF797FCFFF70FF810BDDC
:10273000000C014010B5002402210948FFF78CFC71
:10274000FFF704F804210648FFF786FCFEF7FEFFBA
:1027500004210348FFF77EFCFEF7F8FF002010BDC0
:10276000000C014010B5FFF765FF194B01226B21EA
:10277000692001F065FD174B01221921692001F044
:102780005FFD154B01221A21692001F059FD134B01
:1027900001221B21692001F053FD114B01221C2154
:1027A000692001F04DFD0F4B01223821692001F015
:1027B00047FD0D4B01226A21692001F041FD0B4BC1
:1027C00001222321692001F03BFDFFF71DFF10BD11
:1027D000368C0008378C0008388C0008398C0008CB
:1027E0003A8C00083B8C00083C8C00083D8C0008AB
:1027F00070B50025002402211348FFF72DFC0421A9
:102800001148FFF727FC00BF16E004210E48FFF730
:1028100023FCFEF79BFF6006040E02210A48FFF727
:1028200010FC08B144F0010404210748FFF712FC32
:10283000FEF78CFF681CC5B2082DE6DB0020FFF711
:1028400019FF204670BD0000000C014070B5002546
:10285000002402211E48FFF7FFFB04211C48FFF75C
:10286000F9FB1B48006820F0F00019490860084691
:10287000006840F04000086000BF16E004211448E2
:10288000FFF7EAFBFEF762FF6006040E0221104824
:10289000FFF7D7FB08B144F0010404210C48FFF70F
:1028A000D9FBFEF753FF681CC5B2082DE6DB0848CC
:1028B000006820F0F000064908600846006840F013
:1028C000300008600120FFF7D5FE204670BD0000F3
:1028D000000C014070B50446002504211648FFF79E
:1028E000B9FB00BF1DE004F0800020B102211248B6
:1028F000FFF7B2FB03E002210F48FFF7ABFB6006D6
:10290000040EFEF723FF04210B48FFF7A5FBFEF79B
:102910001DFF04210848FFF79DFBFEF717FF681C09
:10292000C5B2082DDFDB04210348FFF793FBFEF758
:102930000DFFFFF7FFFE70BD000C014000BFFEE77A
:102940001CB5002005212823084ACDE900102C21C0
:102950000F20FFF777F8002005212823044ACDE94E
:1029600000102C210846FFF76DF81CBD251400202F
:102970003E14002070B53048007800EB4000302154
:10298000A1EB00142D480068844217DD2B4909682B
:10299000601AC11700EB91718910491CCDB2102D3E
:1029A00000DD1025254800682844244908600846B1
:1029B000006884421DDC084604601AE01F48006875
:1029C000844216DA1D490968081BC11700EB917192
:1029D0008910491CCDB2102D00DD10251748006864
:1029E000401B1649086008460068A04201DC084602
:1029F00004601248046800260EE014F1200F08DD80
:102A0000802C06DA04F12000C2B23146002003F027
:102A100075FD3034701CC6B207488078B042ECDCDB
:102A2000FFF78EFF00F03AF80348017800220120FA
:102A300003F064FD70BD0000541F0020C01500208D
:102A40002DE9F04100F02AF81248457880780728EF
:102A500001DD072001E00F4880782844C6B22C46EB
:102A600014E0601BC0000830C7B20A480078A042DA
:102A700005D1002308A21946384600F0D6F93A4697
:102A80002146022003F03AFD601CC4B2B442E8DBE8
:102A9000BDE8F081541F00203E0000001FB5202239
:102AA00010216846FDF782FB0A494868FDF790FB54
:102AB0000821A1EB500069464418064841682046A9
:102AC000FDF79AFB00236A461946184600F0ADF957
:102AD0001FBD0000541F00202DE9FC4105460E4695
:102AE00017461C461D488078A84202D00020BDE849
:102AF000FC811A48407830B1012812D0022817D042
:102B0000032827D11CE000202021CDE90010134824
:102B10000078A0F1200120233A461020FEF792FF12
:102B200019E0002332461946382000F07EF912E001
:102B30000A49087800233246082100F076F90AE0B5
:102B40003CB10648007818B12046FEF790F900E045
:102B5000A04700E000BF00BF0120C8E7BC1500206F
:102B600010B50521014805F029FA10BDA88D00080F
:102B70007047000070B5002100230F22C47804B311
:102B8000154C246804F4E064C4F5E064210AC1F142
:102B90000403CA40447804FA03F1847814402143C2
:102BA00009010E4C0678A155047804F01F05012494
:102BB000AC4005786D11AD0005F1E025C5F8004188
:102BC00009E0047804F01F050124AC40044D0678A8
:102BD000761145F8264070BD0CED00E000E400E001
:102BE00080E100E002490143024A116070470000A1
:102BF0000000FA050CED00E008B54FF4C060FFF7E7
:102C0000F1FF1D208DF8000000208DF80100032049
:102C10008DF8020001208DF803006846FFF7AAFF37
:102C200008BD08B54FF4C060FFF7DCFF1E208DF82B
:102C3000000000208DF8010004208DF80200012022
:102C40008DF803006846FFF795FF08BD10B50446F0
:102C5000FFF794FA782000F02BFCFFF7C3FA00206E
:102C600000F026FCFFF7BEFA204600F021FCFFF73B
:102C7000B9FAFFF7A1FA10BD10B50446FFF77EFAC6
:102C8000782000F015FCFFF7ADFA402000F010FCB2
:102C9000FFF7A8FA204600F00BFCFFF7A3FAFFF7B6
:102CA0008BFA10BD10B5FFF7C1FAAE20FFF7CEFFCB
:102CB0002020FFF7CBFF1020FFF7C8FFB020FFF761
:102CC000C5FFC820FFF7C2FF0020FFF7BFFF10209D
:102CD000FFF7BCFF4020FFF7B9FF8120FFF7B6FFE9
:102CE000DF20FFF7B3FFA120FFF7B0FFA620FFF71B
:102CF000ADFFA820FFF7AAFF3F20FFF7A7FFA42002
:102D0000FFF7A4FFD320FFF7A1FF0020FFF79EFFEE
:102D1000D520FFF79BFFF020FFF798FFD920FFF7A2
:102D200095FF2220FFF792FFDA20FFF78FFF122096
:102D3000FFF78CFFDB20FFF789FF2020FFF786FFDE
:102D40008D20FFF783FF1420FFF780FFAF20FFF7F0
:102D50007DFF0020FEF7ACFF10BD000070B50646F9
:102D60000024002500BF32E004F1B001C8B2FFF733
:102D70006DFF0020FFF76AFF1020FFF767FFFFF7E6
:102D8000FDF9782000F094FBFFF72CFA402000F0CA
:102D90008FFBFFF727FA002513E046B10D4901EB41
:102DA000C411495DC943C8B200F082FB05E009497E
:102DB00001EBC411485D00F07BFBFFF713FA681CC0
:102DC000C5B2802DE9DBFFF7F7F9601CC4B2082C0F
:102DD000CADB70BD081B0020FCB506460F46144632
:102DE0001D460820CDE90005044800EBC402082375
:102DF00039463046FEF726FEFCBD0000AD0000203F
:102E0000F0B505460E4614461F46202C01DB7E2CED
:102E100001DD0020F0BDA4F12000C2B23B463146E6
:102E20002846FFF7D9FF0120F4E7F0B505460E4626
:102E300014461F4610E03F2D00DD10E07F2E03DD1D
:102E4000002605F10800C5B222783B4631462846E7
:102E5000FFF7D6FF0836641C20780028EBD100BFAE
:102E6000F0BD2DE9F04104460D466A1ED1B2621E46
:102E7000D0B2FFF729F98046611EC8B22946FFF794
:102E800023F980446A1CD1B2621ED0B2FFF71CF94C
:102E90008044681EC1B22046FFF716F98044681CC2
:102EA000C1B22046FFF710F980446A1ED1B2621CFD
:102EB000D0B2FFF709F98044611CC8B22946FFF778
:102EC00003F980446A1CD1B2621CD0B2FFF7FCF84F
:102ED0004044C6B229462046FFF7F6F807466FB1D0
:102EE000032E01DC022E04DA29462046FEF708FCF8
:102EF0000FE029462046FFF76BFB0AE0032E04D1C2
:102F000029462046FFF764FB03E029462046FEF7EA
:102F1000F7FBBDE8F08110B5FDF7B0FFFDF786FEC9
:102F200010BD704701460020034A506820F440401D
:102F300008435060704700000010024029B1064A63
:102F400052690243044B5A6104E0034A52698243C6
:102F5000014B5A61704700000010024029B1064A37
:102F6000D2690243044BDA6104E0034AD269824326
:102F7000014BDA61704700000010024029B1064A97
:102F800092690243044B9A6104E0034A92698243C6
:102F9000014B9A6170470000001002400320014974
:102FA00008707047801A002002200149087070479D
:102FB000981A002010B50D490978491CC9B20B4A6E
:102FC0001170084601EBD0714910A0EB410131B1FD
:102FD000C820FFF73BFEA120FFF738FE05E0C02028
:102FE000FFF734FEA020FFF731FE10BD0E160020C3
:102FF0002DE9F0410746884614461D460026FFF796
:1030000057FB0646002141EA4701C8B2FFF762FCC0
:10301000064616B13046BDE8F0814046FFF75AFC3F
:1030200006460EB13046F6E7FFF742FB012101EB01
:103030004701C8B2FFF74EFC06460EB13046EAE73C
:103040000BE0012C03D1FFF7D3FB287002E0FFF760
:10305000FDFB28706D1C601EC4B2002CF1D1FFF77F
:1030600053FB0020D7E700002DE9F04F99B004464C
:103070000D4616464FF07E574FF000084FF00009FE
:103080004FF0000A12A813A914AB0EAACDE9001044
:1030900015A917A802F06AF918B1012019B0BDE806
:1030A000F08FBDF84C0000F4807000287ED00E98A0
:1030B000FDF7FBFA83464FF09D41FDF730F90746D7
:1030C0000F98FDF7F2FA83464FF09D41FDF727F97F
:1030D00080461098FDF7E9FA83464FF09D41FDF7D1
:1030E0001EF981461198FDF7E0FA83464FF09D41A5
:1030F000FDF715F9824639464FF08040FDF7DDF8BF
:1031000049460590FDF7D9F8414607904FF04040F9
:10311000FDF7D3F851460590FDF7CFF806900799D3
:10312000FDF773F88346FDF721FBCDE9080101F0B7
:10313000CDFB4FF06632544BCDE90A01FDF7D4F9CF
:10314000CDE90C01FDF73EFB286049464FF0804079
:10315000FDF7B3F849460290FDF7AFF841460490F9
:103160004FF04040FDF7A9F841460290FDF7A5F861
:1031700003900499FDF79BF883464FF07E51FDF7CD
:1031800044F80590FDF7F2FACDE9080139464FF011
:103190008040FDF792F841460390FDF78EF84946CE
:1031A00004904FF04040FDF788F800E068E0514699
:1031B0000390FDF782F883460499FDF726F8059001
:1031C000FDF7D4FACDE90601DDE9082301F0C6FDDB
:1031D0004FF066322C4BCDE90A01FDF785F9CDE9B8
:1031E0000C01FDF7EFFA206051465046FDF765F8F7
:1031F000494604904846FDF760F841460390404632
:10320000FDF75BF8394601903846FDF756F8009017
:103210000199FCF7FAFF02900399FDF748F88346FD
:103220000499FDF744F80590FDF7A0FACDE90801EF
:1032300051463846FDF741F8494604904046FDF7AF
:103240003CF803900499FCF7E0FF4FF040410590F3
:10325000FDF733F88346FDF789FACDE90601DDE98C
:10326000082301F07BFD4FF06632074BCDE90A01E0
:10327000FDF73AF9CDE90C01FDF7A4FA306001E061
:1032800002200BE7002009E766A64C40F0B50B468C
:10329000C3F1800505EBD577C7F3470603B9F0BD49
:1032A0000546C71700EB5777C7F3C702C71700EBF0
:1032B0005777FF10A0EBC707FCB21F2801D02028CA
:1032C00012D131460CE0124D05EBC2156D5C0127A1
:1032D000A7403D430E4F07EBC2177D544D1CE9B28A
:1032E000F5188D42EFDC10E000210CE0084D05EBF5
:1032F000C2156D5C0127A7403D43054F07EBC21780
:103300007D544D1CE9B28029F0DB00BFC7E7000007
:10331000081B00200020024908700249086070471D
:10332000181600201C16002010B50F4800F096F962
:103330000E4A0F490F4800F089F90FA201211348E6
:10334000007800F09BF9124B124A1349134800F021
:103350008BF9AFF22B01124800F0B2F901F0BEFD7B
:103360000020FDF77DFD10BD8515000811690008DE
:1033700025690008656900083C2053455454494EAE
:1033800047204D454E55203E000000006C1A00209D
:10339000B1670008F1790008C9690008197A0008C6
:1033A000701A002000200149086070479C0000202E
:1033B00001200149086070479C000020022001495B
:1033C000086070479C000020032001490860704796
:1033D0009C00002006480068401C0549086003283E
:1033E00001D9002001E002480068014908607047E7
:1033F0009C00002010B58120FFF728FC0F480178C1
:103400000078401C0D4A1070032091FBF0F200FB85
:10341000121020B1012806D002280CD107E0A0200C
:10342000FFF714FC07E00F20FFF710FC03E0DF209C
:10343000FFF70CFC00BF00BF10BD00000C16002001
:10344000704700000C484078A8B90B48007810B1CC
:10345000012808D103E001200749087007E0002097
:103460000549087003E001200349087000BF00BF50
:103470000120014948707047B515002005480078C3
:1034800000B970470020034908700120487000BF50
:10349000F7E70000B51500200448007800B1704738
:1034A000012002490870487000BFF8E7B5150020F8
:1034B00070B50446002500BF26E004F0800028B166
:1034C0004FF480711248FEF7C7FD04E04FF480719D
:1034D0000F48FEF7BFFDFEF740F94FF400710C48AE
:1034E000FEF7BAFDFEF739F94FF400710848FEF710
:1034F000B1FD072D04D14FF480710548FEF7ACFDF6
:103500006006040E681CC5B2082DD6DB70BD000035
:10351000000C014070B50446002500BF19E004F01E
:10352000800020B180210E48FEF796FD03E0802147
:103530000B48FEF78FFD6006040E40210848FEF799
:103540008BFDFEF71AF940210548FEF783FD681C44
:10355000C5B2082DE3DB40210148FEF77BFD70BDBD
:103560000008014010B500F001F810BD0CB50020B6
:10357000019000903348006840F480303149086081
:1035800000BF3048006800F4003000900198401CF3
:103590000190009818B90198B0F5A06FF1D12948B1
:1035A000006800F4003010B10120009001E000201C
:1035B00000900098012843D12348006840F0100093
:1035C000214908600846006820F0030008600846AA
:1035D000006840F0020008601A48406819494860D5
:1035E0000846406848600846406840F4806048608B
:1035F0000846406820F47C1048600846406840F463
:10360000E81048600846006840F08070086000BF1D
:103610000C48006800F000700028F9D009484068A4
:1036200020F00300074948600846406840F0020067
:10363000486000BF0348406800F00C000828F9D13A
:103640000CBD00000010024000200240024BD86078
:1036500019625A6370470000CC1A002008B1014972
:1036600008607047B015002010B5034CE060216180
:103670006261E36110BD0000541F0020024B98708E
:1036800019725A6070470000541F00202DE9FF4155
:1036900004460D4616461F4608488078A04201D0D1
:1036A000BDE8FF8129466846FCF7A6FD3B46324649
:1036B00069462046FFF710FA00BFF1E7BC1500206D
:1036C000426812B9044A126A42600278024B1A70C8
:1036D0001A46116270470000541F0020034800780A
:1036E00080F00100014908707047000018160020A2
:1036F000042808D14FF0E021096941F004014FF09E
:10370000E022116107E04FF0E021096921F0040196
:103710004FF0E0221161704710B500F0C3FA00F0DD
:1037200021FA10BD10B50848FFF798FF074A08496D
:103730000848FFF78BFFAFF213010748FFF7C0FF00
:103740000020FDF78DFB10BD753B0008BD3C000857
:10375000051C000859380008401A002010B513480D
:10376000006840F0010011490860084640681049AF
:1037700008400E494860084600680E4908400B4959
:1037800008600846006820F4802008600846406809
:1037900020F4FE0048604FF41F008860FFF7E2FE4F
:1037A0004FF000600449086010BD000000100240A6
:1037B0000000FFF8FFFFF6FE08ED00E010B5012164
:1037C000144800F0BAF820B313480068401C1249AE
:1037D0000860084600684FF49671B0FBF1F201FBF7
:1037E000120010B901200D4908700D48007860B131
:1037F000094800680A21B0FBF1F201FB120020B970
:1038000008480068401C074908600121014800F091
:1038100076F810BD0004004014000020CC150020F4
:10382000181600201C16002010B50121064800F0D3
:1038300084F840B1054A06490648FFF715FC012106
:10384000014800F05CF810BD00080040580000205E
:10385000540000205000002010B500241F49C879F2
:10386000FEF77AFCC4B221460620FDF7F5FE1B499F
:103870008879FEF771FCC4B221460520FDF7ECFE05
:1038800016494879FEF768FCC4B221460420FDF7CA
:10389000E3FE12498878FEF75FFCC4B2214602209D
:1038A000FDF7DAFE0D494878FEF756FCC4B2214612
:1038B0000120FDF7D1FE09490878FEF74DFCC4B29E
:1038C00021460020FDF7C8FE04490879FEF744FCB4
:1038D000C4B221460320FDF7BFFE10BD481A0020E8
:1038E00021B1028842F08002028004E002884FF693
:1038F0007F731A4002807047CA4302827047CA43EE
:103900000282704721B1028842F00102028004E085
:1039100002884FF6FE731A400280704731B1B0F84A
:10392000442042F40042A0F8442005E0B0F84420CE
:10393000C2F30E02A0F84420704730B502460020C2
:1039400000230024158A05EA0103958905EA01048C
:1039500013B10CB1012000E0002030BD1AB1838901
:103960000B43838102E083898B438381704700008E
:1039700070B5002400220023058C4FF6FE763540FA
:103980000584028C8388048B4FF68F752C40B51EFE
:103990002C400D882C43751E2A400D892A434D88E2
:1039A0002A43144DA8420BD0134DA84208D0134D02
:1039B000A84205D0124DA84202D0124DA84213D100
:1039C0004FF6F7752A404D892A434FF6FB752A407A
:1039D0008D882A434FF6FF652B404FF6FF552B404D
:1039E0008D892B43CD892B4383800483CD888586A5
:1039F000028470BD002C01400034014000400140B1
:103A000000440140004801400A460021018B4FF666
:103A1000F773194011430183704781857047818690
:103A20007047818470470000002202881D4B984235
:103A30000ED01D4B98420BD0B0F1804F08D01B4BDD
:103A4000984205D01A4B984202D01A4B984204D1A2
:103A50004FF68F731A404B881A43174B984207D082
:103A6000164B984204D04FF6FF431A40CB881A43B6
:103A700002808B8883850B8803850A4B98420BD084
:103A8000094B984208D00E4B984205D00D4B9842F6
:103A900002D00D4B984201D10B7A03860123838219
:103AA00070470000002C0140003401400004004039
:103AB00000080040000C00400010004000140040CE
:103AC0000040014000440140004801400EB5012182
:103AD0000220FFF743FA40F2E730ADF80400472038
:103AE000ADF8000069460848FFF79EFF012106482F
:103AF000FFF702FF012211460348FFF72FFF0121C4
:103B00000148FFF7FFFE0EBD0004004010B5FFF7AF
:103B100073F8FFF7DBFF10BD0EB501210420FFF79E
:103B20001DFA44F61F60ADF804004720ADF8000010
:103B300069460848FFF778FF01210648FFF7DCFED9
:103B4000012211460348FFF709FF01210148FFF751
:103B5000D9FE0EBD0008004010B5FFF762F8FFF770
:103B6000DBFF10BD02480068401C01490860704737
:103B70007C0000200EB532A1684600F08FFB0023C8
:103B80006A4614211846FFF750F93048C27930A12F
:103B9000684600F083FB00236A4619460820FFF7B9
:103BA00044F92A4882792DA1684600F077FB00236A
:103BB0006A4619461020FFF738F9244842792AA1AD
:103BC000684600F06BFB00236A4619461820FFF791
:103BD0002CF91E48027927A1684600F05FFB0023FC
:103BE0006A4619462020FFF720F91848827824A158
:103BF000684600F053FB00236A4619462820FFF769
:103C000014F91248427821A1684600F047FB0023CE
:103C10006A4619463020FFF708F90C4802781EA1C1
:103C2000684600F03BFB00236A4619463820FFF740
:103C3000FCF80821482000F011F900F055F80EBDFD
:103C40003C54494D455F5F5345543E00481A00209F
:103C5000796561723A323025326400006D6F6E20F2
:103C60003A202025326400006D6461793A202025D5
:103C700032640000776461793A20202532640000C4
:103C8000686F75723A202025326400006D696E20DD
:103C90003A20202532640000736563203A202025F5
:103CA000326400000448006820B103480068401EE8
:103CB0000149086070470000800000200949097828
:103CC00001F10800C11700EB91618911A0EB81118E
:103CD000044A117010460078082802DA08201146BC
:103CE00008707047511A002010B5524952480068B8
:103CF000FCF784FD05D351494F480068FCF788FD67
:103D000003D200204E49087010BD4D48007810B114
:103D1000012823D109E04B494B480068FCF76EFDB0
:103D200002D201204649087019E048494648006817
:103D3000FCF76EFD11D2464801780078401C444AD9
:103D40001070032906D100201146087002203C495A
:103D5000087002E001203A49087000E000BF00BF8F
:103D600037480078022862D13A490878C11700EB39
:103D70005171C910082955D2DFE801F05404101C14
:103D800028333E493448C079401C642190FBF1F24D
:103D900001FB1200C1B23048C17144E02E48807965
:103DA000401C0C2190FBF1F201FB1200C1B22A4829
:103DB000817138E028484079401C1F2190FBF1F2C6
:103DC00001FB1200C1B2244841712CE02248007965
:103DD000401C072190FBF1F201FB12001E49087103
:103DE00021E01D488078401C182190FBF1F201FB76
:103DF00012001949887016E017484078401C3C2191
:103E000090FBF1F201FB1200134948700BE01248DD
:103E10000078401C3C2190FBF1F201FB12000E499E
:103E2000087000E000BF00BF00200549087000BF17
:103E30006AE70000000048C2540000200000484229
:103E4000601A0020000070C1500000200000E04116
:103E5000611A0020511A0020481A002070B504464B
:103E60000D462748007827490978884205D1264819
:103E700000782649097888423AD0234801782048BA
:103E80000078FDF72FFA1E4800781E49097888420D
:103E900005DA1B480078401C194908700AE01848E8
:103EA000007818490978884204DD15480078401EDA
:103EB000134908701448007814490978884205DAD3
:103EC00011480078401C104908700AE00E4800783C
:103ED0000E490978884204DD0B480078401E0A49E3
:103EE00008700948017806480078FDF79FFC05E056
:103EF0000548017802480078FDF798FC70BD000085
:103F0000501A0020511A0020521A0020531A002083
:103F10000020074948700846C0780A3805490870EB
:103F200008460078402801DD002008707047000036
:103F3000901A0020991A002010B540F2255105482A
:103F400000F019F820B140F22551024800F004F8C1
:103F500010BD00000038014010B50022002340F6DB
:103F60006A14A14200D100BF0A1201249440A3B2F6
:103F7000DC43048010BD70B50246002400230025F8
:103F8000002040F66A16B14200D100BFC1F34215CD
:103F900001F01F03012606FA03F3012D02D19689D1
:103FA000334006E0022D02D1168A334001E0968AA2
:103FB00033400C12012606FA04F41688344013B17B
:103FC0000CB1012000E0002070BD00BFFEE7000042
:103FD00010B5012130480078FDF71AF900212E486C
:103FE0000078FDF715F92D484078012853D12B486A
:103FF00000782B4908700846007810B101282CD1B0
:1040000015E025480078202805DA23480078801C30
:10401000214908700AE023480078083821490870CF
:104020000846007810B902201D4908702BE01D4891
:104030000078802805DA1B48007808301949087094
:104040000AE015480078801E134908700846007879
:1040500010B902201249087015E00F480078202896
:1040600005DA0D480078801C0B4908700AE00D48FD
:10407000007808380B4908700846007810B902200B
:104080000749087000BF00BF05480078022802D128
:1040900000200249487010BDB7150020B51500205A
:1040A000B9150020B81500202DE9FC47DFF8348150
:1040B000DFF8349100268FE04C48007830440A2124
:1040C00090FBF1F201FB1200C4B2494810F8340031
:1040D00000287FD0464800EBC400476800250BE06D
:1040E0000020012118234246CDE900103946284618
:1040F000FDF7A8FC681CC5B23D4800EBC400807801
:10410000A842EDDC3A4800EBC4004068071F681C79
:10411000C5B20020012120234A46CDE900103946CE
:104120002846FDF78FFC681CC5B200200121202322
:104130004A46CDE9001039462846FDF783FC05F1D3
:104140002000C5B20020012120234A46CDE90010FD
:1041500039462846FDF776FC681CC5B200200121CF
:1041600020234A46CDE9001039462846FDF76AFC6F
:10417000681CC5B2681CC5B21D4800EBC400476886
:104180000BE00020012118234246CDE900103946FA
:104190002846FDF757FC681CC5B2802DF1DB14489A
:1041A00000EBC4004068071F114800EBC4004068E2
:1041B000801E0F4901EBC40148600D4800EBC400AC
:1041C000406810F11E0F05DA0020094900E001E007
:1041D00001F83400701CC6B20A2EFFF66DAFBDE8C0
:1041E000FC870000A41A0020A71A00209F1A0020B4
:1041F0008423002010B501F0C3FD01F01BFD03F086
:1042000037FD002010BD000010B50748FFF726FA63
:10421000064A07490748FFF719FA00200649C870FF
:104220000648FCF71DFE10BDF54100082569000891
:104230007D340008B1120008541F002045340008E6
:104240002DE9F04706460F46904699460025FEF7B1
:104250002FFA0546002141EA4601C8B2FEF73AFBB3
:10426000054615B12846BDE8F0873846FEF732FB13
:1042700005460DB12846F6E7002409E019F80400C8
:10428000FEF728FB05460DB12846ECE7601CC4B2DA
:104290004445F3DBFEF738FA0020E4E70FB4084B9F
:1042A00010B504A902AA039800F09EF8044602A9DA
:1042B000002000F03AFA204610BC5DF814FB000024
:1042C0002B470008490050EAC12018BF04204A0DBE
:1042D00018BF40F0010040F2FF72B2EB515F08BF1F
:1042E00040F00200012808BF052070472DE9F04189
:1042F0004F1E00EBC7010446D1E9000115461E46DA
:1043000037F006020DD02A463346FCF7EDF87F1E43
:1043100004EBC703D3E90023FCF73FF837F00602AC
:10432000F1D1022F25D0042F13D0062F18BFBDE8DE
:10433000F0812A463346FCF7D7F8D4E90A23FCF784
:104340002CF82A463346FCF7CFF8D4E90823FCF7CB
:1043500024F82A463346FCF7C7F8D4E90623FCF7CD
:104360001CF82A463346FCF7BFF8D4E90423FCF7CF
:1043700014F82A463346FCF7B7F8D4E90223FCF7D1
:104380000CF82A463346FCF7AFF8D4E90023BDE821
:10439000F041FCF702B80122FCF750BBFBF7FDBF70
:1043A0000022134610461146FCF710B9024A0020BD
:1043B0001107FCF743BB000001FDFFFF02E008C846
:1043C000121F08C1002AFAD170477047002001E08F
:1043D00001C1121F002AFBD170470000014908608B
:1043E00070470000B81A00202DE9FF4F8BB08846B7
:1043F0000546002606E025280BD0DDE90D12904782
:104400006D1C761C28780028F5D10FB03046BDE829
:10441000F08F0024A146A2460122AE4900E00443E9
:1044200015F8013F203B02FA03F00842F7D1287843
:104430002A2810D06FF02F022878A0F13001092926
:1044400015D809EB890102EB410144F0020400EBAD
:1044500001096D1CF0E758F8041B5FEA010903D558
:1044600044F40054C9F1000944F002046D1C28789A
:104470002E2817D115F8010F44F004042A280ED075
:104480006FF02F022878A0F1300109290AD80AEB31
:104490008A0102EB410100EB010A6D1CF2E758F8BA
:1044A00004AB6D1C28786C280FD006DC4C2817D084
:1044B00068280DD06A2814D104E0742810D07A2816
:1044C0000FD10DE044F400140AE044F4801401E03C
:1044D00044F440146978814202D104F580146D1CC3
:1044E0006D1C2878692865D006DC00288DD06328EB
:1044F00027D0642806D15DE06E2808D073282AD022
:10450000752877D0DDE90D129047761CE0E0C4F302
:104510000250022809D003280DD0D8F80010042832
:104520000DD00E6008F10408D2E0D8F80010F217A0
:10453000C1E90062F6E7D8F800100E80F2E70E70CD
:10454000F0E718F8041B8DF8001000208DF801002A
:10455000EB46012003E058F804BB4FF0FF30610741
:104560004FF0000701D40AE07F1C57450DDA87425F
:10457000FADB1BF807100029F6D106E07F1C874202
:10458000FCDB1BF807100029F8D1DDE90D23A9EBAE
:1045900007008146214600F0B1F83044C61904E016
:1045A000DDE90D121BF8010B90477F1EF8D2214662
:1045B000484688E058F8040BC4F302514FF00A0B48
:1045C000032900D100B2042900D140B2002802DA48
:1045D00040422D2102E0210505D52B218DF8241024
:1045E000012104E006E0E10710D02021F6E708AF42
:1045F000089113E058F8040BC4F302514FF00A0B72
:10460000032900D180B2042900D1C0B20021EEE715
:104610005946FCF707F9303107F8011D0028F7D19A
:10462000ADEB070000F1200B600702D524F48034C5
:1046300001E04FF0010ADA4502DDAAEB0B0000E0D1
:104640000020824600EB0B0108980144A9EB010011
:104650000A90E00306D4DDE90D2321460A9800F014
:104660004DF806444FF0000908E009A911F80900C7
:10467000DDE90D12904709F10109761C0899894579
:10468000F3DBE0030CD5DDE90D2321460A9800F0A9
:1046900035F8064404E0DDE90D1230209047761C21
:1046A000BAF10001AAF1010AF5DC05E0DDE90D121D
:1046B00017F8010B9047761CBBF10001ABF1010B21
:1046C000F4DC0A982146DDE90D2300F005F80644E4
:1046D0006D1C97E6092801002DE9F04104460025EC
:1046E0001E461746880404D405E039462020B0470A
:1046F0006D1C641EF9D52846BDE8F0812DE9F04116
:10470000044600251E469046C80301D5302700E028
:104710002027880404D505E041463846B0476D1C83
:10472000641EF9D52846BDE8F0810A68531C0B6069
:10473000107070472DE9F04F85B006468946002578
:1047400002A801F065FB00244BE056F8240059F85C
:104750002410471A002F01DB394600E07942084651
:10476000FBF7A3FF80464FF08F41FBF7D8FD824651
:1047700002A951F824000021FCF740F821D002A83A
:1047800050F824105046FBF7CAFD07464FF07E5103
:10479000FBF78DFD83461649486AFBF7E7FF07469E
:1047A00088465846FBF7E2FF21F000413A4643466F
:1047B000CDE90001FBF7EEFF12D20120A040054336
:1047C0000EE00B48C1695046FCF718F805D30848BD
:1047D000016A5046FCF71CF802D20120A0400543B4
:1047E000641C032CB1DB284605B0BDE8F08F000047
:1047F000188000080148007870470000481F00201A
:104800000348007A08B9012070470020FCE7000047
:10481000481F00200122064B1A701A46506009B149
:10482000002200E0C022024B5A701A4611727047F3
:10483000481F002010B5002423480078002842D0EB
:1048400021484478007AC0B1042C02DA601CC4B25A
:104850000CE0082C02DAE01CC4B207E0102C02DAEB
:10486000601DC4B202E004F10800C4B2402C1CDD9B
:10487000002015490870002417E0FB2C02DD601CA5
:10488000C4B20CE0F72C02DDE01CC4B207E0EF2C50
:1048900002DD601DC4B202E004F10800C4B20A2CBB
:1048A00003DA002008490870002407484470FFF725
:1048B000A1FF40B90448406828B1034948688047CF
:1048C00000200149486010BD481F00202DE9F04D2F
:1048D0008D4F21F0004A86B005460C46BA452ADBCA
:1048E000AAEB070028430AD08848824501DC1AD188
:1048F000CDB106B02846BDE8F04DFFF74CBD844A67
:10490000844B2846FBF7F0FD07460E46824A834B50
:1049100028462146FBF7E8FD06B03A463346BDE897
:10492000F04DFBF73ABD0120FFF758FD06B0BDE89A
:10493000F04DFFF735BD7A48824542DABAF1795F2A
:104940000BDA2846FFF7BEFC042808BFFFF72EFD50
:10495000284606B02146BDE8F08D2A460B46104693
:10496000FBF7C2FD834602466E480E460B46062103
:104970007844FFF7BBFC5A463346FBF7B5FD80464B
:1049800069488A465A46334604217844FFF7AEFC0C
:104990005A463346FBF7A8FD00223B46FBF7FDFCD9
:1049A00002460B4640465146FBF710FE2A46234678
:1049B000FBF79AFD06B02A462346BDE8F04DFBF70B
:1049C000ECBC284624F0004100223D463B46FBF764
:1049D00088FD4FF0FF32FCF731F806460246534897
:1049E0000F460B4606217844FFF780FC32463B46D3
:1049F000FBF77AFDCDE900014D4832463B460421E4
:104A00007844FFF773FC32463B46FBF76DFD00220E
:104A10002B46FBF7C2FC834602913046394603F031
:104A200001F9804643480D46504517DCDDE9000199
:104A30005A46029BFBF7CAFD42462B46FBF754FD44
:104A400042462B46FBF7A9FC0122FBF7F7FF304A51
:104A5000304BFBF743FD304A304B4CE04FF0000A3F
:104A600052460B464046FBF798FCCDE903105246F0
:104A70002B4610461946FBF737FD32463B46FBF7FF
:104A800030FDDDE90332FBF7A1FD06460F46DDE907
:104A900000015A46029BFBF799FD834600910122D3
:104AA00030463946FBF7CAFF194A1A4BFBF719FD86
:104AB00006460F46012240462946FBF7BFFF5A46ED
:104AC000009BFBF711FD32463B46FBF707FD064610
:104AD0000F46012250462946FBF7B0FF0E4DDFF886
:104AE00058802A464346FBF7FCFC32463B46FBF720
:104AF000F8FC2A464346FBF7F4FC002CD8BF81F0B3
:104B0000004106B0BDE8F08D0000F03F0000F07FEE
:104B1000075C143326A6913C182D4454FB21F93F21
:104B20000000E03F1C48000032480000A64700009B
:104B3000BC4700003333EF3FFB21E93F2DE9F84F3D
:104B400004460D4621F0004000917349814211DC7A
:104B50007249884201DC06D12CB120462946BDE8C5
:104B6000F84FFFF718BC6E48002DCCBF6D496E4959
:104B7000BDE8F88F6D49814211DD6D498142D8BF92
:104B80004FF0FF366DDD20462946FFF79BFB0428DA
:104B900008BFFFF70BFC20462946BDE8F88F6549A2
:104BA000654F25F00045814233DD6449814219DDBE
:104BB000002632464FF0804320462946FBF7EDFBA6
:104BC00080468A46012220462946FBF737FF00220D
:104BD0003B46FBF783FC42465346FBF7F7FC044693
:104BE0000D463EE001260022BA463B4620462946B5
:104BF000FBF7D3FB80460F4600225346204629464A
:104C0000FBF76CFC42463B46FBF7E0FC04460D46D6
:104C100027E04B4981421BDDDFF828A10226002254
:104C2000534620462946FBF75FFC00223B46FBF734
:104C3000B4FB80460F460022534620462946FBF728
:104C40004DFC42463B46FBF7C1FC04460D4608E0DE
:104C5000032622462B4600203B49FBF7B7FC0446BF
:104C60000D4622462B4610461946FBF73DFC8B4667
:104C7000824602460B46FBF737FC0746024633489E
:104C800088460B4606217844FFF730FB52465B46C8
:104C9000FBF72AFC82462E488B463A4643460521BE
:104CA0007844FFF723FB3A464346FBF71DFC0246D8
:104CB0000B46002E504659460CDAFBF76EFB224697
:104CC0002B46FBF711FC01B022462B46BDE8F04F06
:104CD000FBF707BCFBF761FB22462B46FBF704FC06
:104CE0001C4A7A4402EBC603D3E90023FBF7F6FB28
:104CF00022462B46FBF7F2FB174A7A4402EBC60327
:104D0000D3E90023FBF7EDFB009A002AB8BF81F03E
:104D10000041BDE8F88F0000000010440000F07F63
:104D2000182D4454FB21F93FFB21F9BF0000DC3F63
:104D30000000203E0000F33F0000F03F0000E63F8F
:104D4000008003400000F83F0000F0BFBE450000B7
:104D50007C4500001A450000E24400002DE9F04DBA
:104D60009446CCF1000423F000464CEA0404524F70
:104D700046EAD4749A46884621F00042BC4206D8DE
:104D8000454240EA050442EAD474BC4204D9BDE875
:104D9000F04D6246FFF702BBAAF14055A5F17F65D1
:104DA00055EA0C040BD0022404EAAA74434DDFF840
:104DB00010E144EAD87452EA000B04D00CE0BDE8DC
:104DC000F04DFFF7BBBE002C14BF012CBDE8F08DE9
:104DD000022C30D0032C32D056EA0C0B0AD0BE4243
:104DE00020D1BA4209D126F0804622F080423346D3
:104DF000114617E000291ADB25E0DFF8C8B0FB44B4
:104E0000002C04BFDBE90001BDE8F08D012C02BFDE
:104E1000DBE9000181F00041BDE8F08D022C0AD0F1
:104E2000032C0CD0BA4212D1B8F1000F0BDA234890
:104E30002549BDE8F08D28462449BDE8F08D284677
:104E40007146BDE8F08D1D482149BDE8F08D921BEB
:104E500012153C2AC4BF19481D490EDCBAF1000FD7
:104E6000BEBF12F13C0F0020014606DB6246FBF795
:104E7000ADFB21F00041FFF761FE002C08BFBDE84B
:104E8000F08D012C04BF81F00041BDE8F08D114A86
:104E9000114B022C07D0FBF721FB2A46BDE8F04D51
:104EA0000A4BFBF71BBBFBF719FB2A46BDE8F04D8D
:104EB000064BFBF716BB00000000F07F182D445492
:104EC000FB2109C076440000FB21F9BFFB2109400A
:104ED000FB21F93F075C143326A6A13C0949487819
:104EE0000A78C11D8A4204DB06490978891FC8B2C5
:104EF00005E004490978814201DA0249087801494C
:104F000048707047541F00202DE9F0410446E078B6
:104F100000F0C006E07800F03F05607800F0010086
:104F200098B1EF102846E91705EB5171C910A5EBB0
:104F3000C101491C01F0FF080B48006820B10A4874
:104F4000414602683846904700BF607800F008008C
:104F500030B10548406818B1B011034A516888471C
:104F60000020BDE8F0810000BC1A002010B56FF0F1
:104F70000400FEF7BDFB0A4800680A49B0FBF1F0E7
:104F8000094908700846007800EB4001C1EBC010E9
:104F90004FF6FF7101EAC0000449088010BD00000F
:104FA0000000002000127A0084000020860000200B
:104FB0000146114A12884A434FF0E0235A61002209
:104FC0009A611A46126942F001021A6100BF4FF05D
:104FD000E022106900F001021AB100F48032002AC8
:104FE000F5D04FF0E022126922F001024FF0E023E9
:104FF0001A6100229A6170478600002010B5FFF701
:1050000019FC114800688047FEF7E2FF0F4800785E
:1050100028B90E48407810B901F0EEFC07E00B48C3
:10502000007820B10948407808B9FBF7A3FF084889
:105030000078FDF793FE0748007820B94FF48061AF
:105040000548FBF7BAF810BDB0150020B5150020D3
:10505000AC000020B4150020081B002001460A20E7
:1050600091FBF0F0C0B2704738B5044664B120201F
:105070008DF8000028208DF8010030208DF8020006
:1050800038208DF8030004E0A32204216846FBF7D2
:105090008DF86A46042140F69E2002F06FFC02F073
:1050A0005FF838BD3EB5044602208DF80000CA20E6
:1050B0008DF80100E3208DF8020009208DF803002F
:1050C0006A460421682002F059FCA3208DF80000F4
:1050D00004F0400048B1C0208DF80100C8208DF8D0
:1050E0000200C2208DF8030006E0A3208DF8010025
:1050F0008DF802008DF8030004F4C07048B1C4209C
:105100008DF80400CC208DF80500C6208DF806002F
:1051100006E0A3208DF804008DF805008DF8060048
:10512000A3208DF807008DF808008DF809006A4665
:105130000A2140F6A72002F021FC04F0030018B178
:1051400020208DF8000002E0D8208DF800006A468B
:10515000012140F6B62002F011FC04F0200018B145
:10516000012000F0ADF802E0002000F0A9F804F4FE
:10517000C07008B304F4807060B1B2208DF80000F4
:105180008B208DF80100B6208DF802009B208DF851
:1051900003000BE0B0208DF8000080208DF80100A6
:1051A000B4208DF8020090208DF803006A46042197
:1051B00040F6A22002F0E2FB04F0010020B3F82048
:1051C0008DF800006A4601214FF40B6002F0D6FB17
:1051D000FA21072000F02CFC072000F0F3FB01204F
:1051E00000F013FC642000F0F3FC4FF4FA7000F0C0
:1051F00002FDC821304800F0A3FB282000F0BCFBD2
:105200000A2000F0CCFB08E0D8208DF800006A46A8
:1052100001214FF40B6002F0B1FB04F0020018B161
:10522000D9208DF8000002E0D8208DF800006A46F1
:10523000012140F23D7002F0A1FB04F0040018B11E
:10524000012000F069F802E0002000F065F804F0A9
:10525000100018B10120FFF707FF02E00020FFF760
:1052600003FF44F008001549488101F079FF002050
:105270001249887304F0400018B10846807B801DF5
:10528000887304F4C07020B10C48807B801D0B49EA
:10529000887304F0140020B10848807B103007495F
:1052A000887304F0030020B10448807B001D03498B
:1052B000887300203EBD000009E3CA02BC1A00202A
:1052C0003EB504466CB10EA1D1E900208968CDE954
:1052D000002002916A4609214FF4976002F04EFBCC
:1052E0003EBD0AA2D2E900109268CDE90102009108
:1052F0006A4609214FF4976002F040FBF0E7000096
:10530000B8AAB38DB4980D355D000000B8AAAAAA5A
:10531000B088C3C5C700000038B5044664B1C020DA
:105320008DF80000C2208DF80100C4208DF8020025
:10533000C6208DF8030004E08B2204216846FAF7AA
:1053400035FF6A46042140F6982002F017FB01F071
:1053500007FF38BD10B5C8234FF48062024940F6FC
:10536000F63001F097FD10BD408000082DE9F04FA8
:105370008DB00746884615469946DDE9166B002430
:10538000002030806B49887B5A4605A901F04EFE0B
:1053900018B1601E0DB0BDE8F08F6648807A00F04D
:1053A0001400002867D09DF8140000069DF8151021
:1053B00040EA01409DF8161040EA01209DF81710C0
:1053C000084328609DF8180000069DF8191040EA6F
:1053D00001409DF81A1040EA01209DF81B10084377
:1053E00068609DF81C0000069DF81D1040EA014011
:1053F0009DF81E1040EA01209DF81F100843A86088
:105400009DF8200000069DF8211040EA01409DF81B
:10541000221040EA01209DF823100843E86004F1BF
:105420001000C4B22868001401906868001402904B
:10543000A86800140390E8680014049001984043A1
:10544000029901FB0100039901FB0100049901FB92
:10545000010ABAF1706F02DBBAF1885F05DD01F075
:105460007FFE00203080401E94E7B6F9000040F433
:105470008070308000BF2F48807A00F0400020B359
:1054800005A9601C085C095D40EA012000B2A8F88B
:10549000000005A9E01C095C05AAA01C105C41EAFB
:1054A000002000B2A8F8020005A9601D095C201DBB
:1054B000105C41EA002000B2A8F80400A01DC4B2AC
:1054C000B6F9000040F0080030801A48408900F426
:1054D000C07008B305A9601C085C095D40EA0120A2
:1054E00000B2388005A9E01C095C05AAA01C105C6C
:1054F00041EA002000B2788005A9601D095C201DEA
:10550000105C41EA002000B2B880A01DC4B2B6F918
:10551000000040F0700030800648807A00F0030000
:1055200018B105A90819FFF7EFFC484600F002FF83
:1055300000202FE7BC1A002070B588B0064601A8ED
:1055400001F076FBBDF804000021C90341EA504593
:10555000C4034448007A00F0030056F82000059088
:105560004048007A00F0040010B1059840420590D0
:105570003C48007AC0F3C10056F820000690394834
:10558000007A00F0200010B106984042069035489D
:10559000007AC0F3811056F8200007903148008946
:1055A00000F4807010B10798404207900598C11729
:1055B000A0FB042301FB043100FB0510810041EA3C
:1055C000927005900698C117A0FB042301FB0431DB
:1055D00000FB0510810041EA927006900798C11700
:1055E000A0FB042301FB043100FB0510810041EA0C
:1055F000927007900598000E8DF808000598000C31
:105600008DF809000598000A8DF80A000598C0B2C7
:105610008DF80B000698000E8DF80C000698000C13
:105620008DF80D000698000A8DF80E000698C0B29D
:105630008DF80F000798000E8DF810000798000CE9
:105640008DF811000798000A8DF812000798C0B273
:105650008DF8130002AA0C214FF4257002F08EF988
:1056600008B070BDBC1A002030B585B0044616A243
:1056700007CA02AB07C3C82C03DD4FF0FF3005B0EB
:1056800030BDC82090FBF4F0401E85B2280A8DF88A
:105690000000E8B28DF801006A46022140F21620AF
:1056A00002F06CF910B14FF0FF30E8E702AA0C21CC
:1056B00040F6C12002F062F910B14FF0FF30DEE792
:1056C000044884810020DAE7FEF2ABC4AAF1DFDFF0
:1056D000BBAFDFDFBC1A00201FB504464848007A84
:1056E00000F0030054F8200001904548007A00F0D3
:1056F000040010B10198404201904148007AC0F383
:10570000C10054F8200002903D48007A00F02000CB
:1057100010B10298404202903948007AC0F38110DB
:1057200054F8200003903648008900F4807010B1CE
:105730000398404203903349019880FB0101800F98
:1057400040EA810001902F49029880FB01108200FD
:1057500042EA917002902B49039880FB011082006D
:1057600042EA917003900198000E8DF800000198B4
:10577000000C8DF801000198000A8DF802000198D4
:10578000C0B28DF803006A4604214FF4747002F031
:10579000F5F818B14FF0FF3004B010BD0298000EBC
:1057A0008DF800000298000C8DF801000298000AA4
:1057B0008DF802000298C0B28DF803006A460421F9
:1057C0004FF4757002F0DAF810B14FF0FF30E3E7F4
:1057D0000398000E8DF800000398000C8DF801006E
:1057E0000398000A8DF802000398C0B28DF80300F8
:1057F0006A4604214FF4767002F0C0F8CCE700004E
:10580000BC1A002009E3CA0210B586B0044647A0BE
:105810000068039046A00068029046A000680190CE
:1058200045A00068009004F0030003A9085C8DF80F
:10583000140003A8C4F3C101405C8DF8150003A84F
:10584000C4F38111405C8DF8160004F0030002A936
:10585000085C8DF8100002A8C4F3C101405C8DF80B
:10586000110002A8C4F38111405C8DF8120005AA52
:10587000032140F2264002F081F818B14FF0FF30CA
:1058800006B010BD04AA032140F22A4002F076F8C7
:1058900010B14FF0FF30F3E70198059000980490A5
:1058A00004F0040058B19DF8140040F001008DF898
:1058B00014009DF8100040F001008DF8100004F075
:1058C000200058B19DF8150040F001008DF815003A
:1058D0009DF8110040F001008DF8110004F4807073
:1058E00058B19DF8160040F001008DF816009DF8A3
:1058F000120040F001008DF8120005AA03214FF4B8
:10590000886002F03BF810B14FF0FF30B8E704AA0E
:10591000032140F2314002F031F810B14FF0FF3076
:10592000AEE7064804810020AAE700004CCD6C00D9
:105930000CC92C003656760026466600BC1A00209C
:10594000F8B505460E464FF47A7095FBF0F000FB73
:1059500006F4200E8DF80000200C8DF80100200ABE
:105960008DF80200E0B28DF803006A4604214FF47E
:10597000AE7002F003F8F8BD38B50446052094FB7C
:10598000F0F084B220128DF80000E0B28DF8010032
:105990006A4602214FF4AD7001F0F0FF38BD38B512
:1059A0000446052094FBF0F084B220128DF800002C
:1059B000E0B28DF801006A4602214FF4AC7001F0AC
:1059C000DDFF38BD38B504460020009004F001002A
:1059D00020B19DF8000040F03000009004F002007B
:1059E00020B19DF8000040F00C00009004F004008D
:1059F00020B19DF8000040F0030000906A460121AC
:105A00004FF4A47001F0BAFF38BD38B50446012C3C
:105A100001DA012402E0042C00DD0424601EC0B27F
:105A200000906A46012140F24F1001F0A7FF38BDF7
:105A30002DE9FC4706460F4606F0070010B1B7F502
:105A4000C86F03DD4FF0FF30BDE8FC873846FAF73A
:105A500035FE81465949FAF762FC8046684601F0F6
:105A6000C1F89DF80000022806D0042816D00828A6
:105A700026D0102848D135E04FF08D414046FAF746
:105A80001CFC8146FAF745FE84B24D494046FAF7C0
:105A900014FC8146FAF73DFE85B238E04FF08C41A8
:105AA0004046FAF70AFC8146FAF733FE84B24549CC
:105AB0004046FAF702FC8146FAF72BFE85B226E053
:105AC0004FF08B414046FAF7F8FB8146FAF721FE8A
:105AD00084B23D494046FAF7F0FB8146FAF719FED9
